:020000040800F2
:10000000A00800201D0E0008090300080B030008CB
:100010000D0300080F030008110300080000000092
:1000200000000000000000000000000013030008B2
:10003000150300080000000017030008190300085A
:10004000370E0008370E0008370E0008370E00087C
:10005000370E0008370E0008370E0008370E00086C
:10006000370E0008370E0008370E0008370E00085C
:10007000370E0008370E0008370E0008370E00084C
:10008000370E0008370E0008370E0008370E00083C
:10009000370E0008370E0008370E0008370E00082C
:1000A000370E0008370E0008370E0008370E00081C
:1000B000370E0008370E0008370E0008370E00080C
:1000C000370E0008370E0008370E0008370E0008FC
:1000D000370E0008AD0D0008370E0008370E000877
:1000E000370E0008370E0008370E0008370E0008DC
:1000F000370E0008370E0008370E0008370E0008CC
:10010000370E0008370E000845050008370E0008B6
:10011000370E0008370E0008370E00080B0B0008DA
:10012000370E0008370E0008370E0008370E00089B
:10013000370E0008370E0008370E0008370E00088B
:10014000370E0008370E0008370E0008370E00087B
:10015000370E0008370E0008370E0008370E00086B
:10016000370E0008370E0008370E0008370E00085B
:10017000370E0008370E0008370E0008370E00084B
:10018000370E0008370E000800F002F800F041F8C2
:100190000AA090E8000C82448344AAF10107DA45E2
:1001A00001D100F036F8AFF2090EBAE80F0013F0F3
:1001B000010F18BFFB1A43F001031847A0320000DB
:1001C000C0320000103A24BF78C878C1FAD852076C
:1001D00024BF30C830C144BF04680C6070470000C1
:1001E0000023002400250026103A28BF78C1FBD840
:1001F000520728BF30C148BF0B607047642902F026
:100200002F85002070471FB503F01DF91FBD10B5E5
:1002100010BD02F0EDFD1146FFF7F5FF00F008F804
:1002200002F00BFE03B4FFF7F2FF03BC00F026FD63
:100230002DED048B8CB04FF4A06000F00FFEA820D1
:1002400000F0C0FC00F032F94FF4E13000F05CFD4A
:1002500042F2CF042146312000F048F90021204627
:1002600000F096F94FF4A87142F20F7000F005FA11
:1002700002F0EAFB02F040FC00F05AFA00F07EFACD
:1002800000F0D6FB1B4CB3EE0E9A9FED1B8B1C4D62
:100290001C4E00F05EFC84ED020A39EE400A10EEBE
:1002A000100A03F05FF853EC182B02F05DFF02F028
:1002B000D1FD00EE100A84ED000AD4ED010A03A876
:1002C00002F0F8FA03A809AB07C807C3DDE90A0181
:1002D000CDE90001099B2A6803A8316802F041FBBF
:1002E00003A806AB07C807C306A807C802F06FFB40
:1002F000CFE7000000000020000000000000F83FF1
:1003000028000020240000207047FEE7FEE7FEE7FB
:10031000FEE7704770477047704700000CB5002239
:10032000019200925849086840F4803008604FF408
:10033000A043086800F4003000900198401C019030
:10034000009810B901989842F3D10868800302D54B
:100350000120009000E000920098012831D14A4825
:100360004030026842F0805202604848026842F41D
:10037000404202604448083002680260026842F469
:1003800000420260026842F4A0520260021F404B29
:1003900013600A6842F080720A600A689201FCD514
:1003A0003C4A40F205711160016821F003010160CF
:1003B000016841F0020101600168C1F38101022975
:1003C000FAD10CBD10B53448016841F470010160E8
:1003D0002D48016841F0010101602B4A00210832DB
:1003E000116002682D4B1A400260031D2C4A1A60EE
:1003F000026822F48022026023480C300160FFF77B
:100400008DFF25494FF000608039086010BD70B540
:100410001D4E0836306800F00C00224B224900289F
:100420000FD05D1004280ED008280ED00B60306865
:100430001D4AC0F30310121D105C0A68C2400A6016
:1004400070BD0B60F3E70D60F1E70F4A121D1068F5
:10045000C0F38054106800F03F0034B1B5FBF0F0F9
:100460001368C3F38813584305E0B3FBF0F0136837
:10047000C3F3881358431268C2F30142521C52005E
:10048000B0FBF2F00860D2E7003802400070004094
:1004900008544007003C024088ED00E0FFFFF6FEF4
:1004A000103000240024F4000C0000207CB5012151
:1004B000082000F0D8FF4FF48054009401208DF8FC
:1004C000040000228DF8062003228DF805208DF807
:1004D0000700054D6946284600F0B2FD2146284632
:1004E00000F018FE7CBD0000000C02407FB5044601
:1004F0000D460121082000F0DAFF0294ADF8045007
:100500000020ADF80600ADF80C001E4C01A92046F5
:1005100001F060F901221146204601F02EFD012173
:10052000204601F0D5F932208DF8000003208DF827
:1005300001008DF8020001208DF80300684600F0EC
:1005400092FC7FBD70B50F4D10352888C00711D0C3
:100550000D4C01202070022002F05CFA6060032044
:1005600002F058FAA0600949D1F8B00238B1002071
:10057000C1F8B002288820F00100288070BD012059
:10058000F6E70000000C00402000002000804142FF
:100590002DE9F0418AB006460D460121042000F005
:1005A00086FF0121022000F05EFF4FF47072089276
:1005B00002208DF8240003208DF8250000248DF8FA
:1005C000264001278DF82770DFF8548108A940469E
:1005D00000F036FD02220621404600F0A9FD02226D
:1005E0000721404600F0A4FD02220821404600F009
:1005F0009FFD02220921404600F09AFDADF81450FB
:10060000ADF816400696ADF81C40464D05A92846A3
:1006100001F0E0F86021ADF80010ADF80270ADF81F
:100620000C4002946946284601F08EF96946284636
:1006300001F0CAF96946284601F01EFA69462846C3
:1006400001F052F90821284601F09EFA08212846B7
:1006500001F0A0FA0821284601F0A6FA0821284650
:1006600001F0A8FA0121284601F016F901212846D7
:1006700001F02EF90AB0BDE8F0812DE9F0418AB011
:1006800006460D460121084600F01DFF01210846DF
:1006900000F0E9FEDFF8908001220B21404600F0D7
:1006A00047FD4FF40062089202208DF824000320D9
:1006B0008DF8250000248DF8264001278DF827703D
:1006C00008A9404600F0BCFCADF81450ADF8164047
:1006D0000696ADF81C40154D05A9284601F07AF89C
:1006E0006021ADF80010ADF80270ADF80C4040F29A
:1006F000EE2102916946284601F0BEF908212846FC
:1007000001F058FA0121284601F0C6F801212846D7
:1007100001F0DEF80121284601F009FCAAE70000FB
:1007200000040240000800400000024000000140B8
:100730001CB50121022000F096FE0121084600F0C0
:1007400092FE0220009001248DF8044000208DF8D4
:10075000060003208DF805008DF807406946A9487A
:1007600000F06EFC202000906946A74800F068FC6D
:10077000A6480460A648C0F894421CBD70B58CB071
:100780000121042000F06FFE01210E02304600F02E
:100790009AFE0121022000F066FE0121084600F0C9
:1007A00062FE38210A9103258DF82C5000248DF823
:1007B0002F400AA9974800F043FC0A950AA99148DE
:1007C00000F03EFC20210A910AA98F4800F038FC75
:1007D0000121304600F0B3FE0021304600F0AFFEAC
:1007E00006944FF47060099008942804079006A8B6
:1007F00001F0C7FE00948DF804408DF80540029486
:10080000049401208DF81400834C6946204601F0C1
:100810008DFE0121204601F0C9FE0CB070BD10B55F
:100820007D4C014607230122204601F0FCFE2046B4
:1008300001F033FF0221204602F012F80028F9D01F
:100840002046BDE8104001F060BF2DE9F0410746A9
:100850000E460025002408E03846FFF7E0FF054477
:10086000052000F0F0F9641CE4B2B442F4D3B5FB07
:10087000F6F080B2BDE8F0810020401C1E28FCDBB1
:1008800070472DE9F04700240025614E4FF0010824
:10089000C6F89482DFF884910027C9F88472012099
:1008A00000F0A3F9C9F88482C6F89472012000F020
:1008B0009CF9C6F89482C9F88472012000F095F979
:1008C000DFF85C91C6F89472012000F08EF90820E0
:1008D000FFF7A5FF000929F815006D1CEDB2C6F859
:1008E0009482012000F081F9641CE4B2802CE9D3E9
:1008F000BDE8F087002800DA4042704770B5484CE8
:10090000484D2288EA8005262E702878EB8834F836
:100910001010994200D3E980401CC0B228707B2897
:10092000F3D32A812E70287834F810102889814258
:1009300000D829813CA002F053F92878401CC0B2AD
:1009400028707B28EFD339A002F04AF9E88829897A
:100950000844C0F3470068712E70297834F81120DC
:1009600082421BD94A1C34F81220824216D98A1CB2
:1009700034F81220824211D9CA1C34F81220824263
:100980000CD20A1D34F81220824207D24A1D34F8D4
:100990001220824202D22978A97004E0491CC9B20F
:1009A00029707B29D9D37B216970697834F81120AB
:1009B00082421BD24A1E34F81220824216D28A1E6C
:1009C00034F81220824211D2CA1E34F81220824218
:1009D0000CD90A1F34F81220824207D94A1F34F872
:1009E0001220824202D96878E87004E0491EC9B238
:1009F00069700529D9D8E878A97808444008287191
:100A000070BD0000000402400000024084824042A9
:100A100000004042000802400020014000804042A7
:100A2000780000202C000020256400000D0A000042
:100A3000F0B587B00121042000F039FD4FF4807437
:100A4000029402208DF80D0001268DF80C60574F9E
:100A500002A9384600F0F4FA2146384600F05AFB65
:100A60006500029500248DF80C4002A9384600F07C
:100A7000E7FA2946384600F04DFB0121202000F01E
:100A800016FD4B4D284600F0E9FD40F2E730059099
:100A90004720ADF81000ADF81840ADF8124004A999
:100AA000284600F097FE0121284601F079FA01223C
:100AB0001146284601F061FA4FF4A06000F0CEF92B
:100AC00037208DF804008DF805408DF806408DF82C
:100AD000076001A800F0C7F90021284600F0F8FEE1
:100AE00007B0F0BD10B5324C0021204600F0B4FE36
:100AF000304A002111602046BDE81040012100F07D
:100B0000E7BE00212A4800F0E3BE10B5284C0121C1
:100B1000204601F048FA002807D00121204601F0C4
:100B20004EFA24480168491C016010BD10B52148E7
:100B300004684FF47A7044431D4800F091FE044469
:100B40001B49002024310860322000F07CF8204648
:100B500010BD10B5184C0120C4F8A002142000F0FC
:100B600044F80020C4F8A002D4F824020028FBD0E6
:100B7000FFF7B8FFD4F824020128FBD0FFF7C1FF2C
:100B8000FFF7D4FF00EE100AB8EE400A10EE100A8C
:100B900002F0E8FB9FED091B53EC112B02F08CF9DE
:100BA00002F058F900EE100A10BD000000080240E3
:100BB0000014004038000020000041420000000006
:100BC00000004D4010B504466FF0040000F08FF9AE
:100BD0002949E008087000EB4002C2EBC0104FF654
:100BE000FF7202EAC000488010BD234909784843DB
:100BF0004FF0E021486100238B61086940F001005B
:100C000008610869C20701D0C003FAD5086920F05D
:100C1000010008618B6170471749498848434FF0CC
:100C2000E021486100238B61086940F00100086100
:100C30000869C20701D0C003FAD5086920F0010095
:100C400008618B61704770B54FF40775B0FBF5F123
:100C5000CCB2B0FBF5F105FB110604E02846FFF726
:100C6000DBFF641EE4B2002CF8D1002E03D0304626
:100C7000BDE87040D0E770BD3C000020704762497D
:100C80000A885206FCD5C2B28A80704770B586B019
:100C900005460121084600F0E6FB0121480400F06A
:100CA00006FC5A4E07220221304600F041FA072284
:100CB0000321304600F03CFA0C20049002208DF80D
:100CC00014008DF8150000248DF8164001208DF8D1
:100CD000170004A9304600F0B3F90095ADF80440C0
:100CE000ADF80640ADF80840ADF80C400820ADF86E
:100CF0000A00474C6946204601F082FA012120464D
:100D000001F0F7FA06B070BDF0B587B005460121D5
:100D1000084600F0A8FB0121102000F0D4FB3B4F57
:100D200007220921384600F003FA07220A21384633
:100D300000F0FEF94FF4C060059002208DF8180015
:100D40008DF8190000248DF81A4001268DF81B60DB
:100D500005A9384600F074F90195ADF80840ADF8E2
:100D60000A40ADF80C40ADF810400C20ADF80E0074
:100D7000254C01A9204601F043FA0121204601F04B
:100D8000B8FA012240F22551204601F065FB2520EA
:100D90008DF8000003208DF801008DF802008DF819
:100DA0000360684600F05FF807B0F0BD70B5164C00
:100DB00040F22551204601F075FB00280ED0204658
:100DC00001F0C7FAC1B2134A1088030406D44404E0
:100DD0004FF0000307D50A2901D0138070BD40F4FD
:100DE0000040108070BD0D290AD00B4DC0F30D04DA
:100DF0002955401C80B21080C728F3D9138070BDDC
:100E000040F48040108070BD00100140000002409E
:100E1000004400404000002078010020094880473D
:100E200009480047FEE7FEE7FEE7FEE7FEE7FEE7CC
:100E3000FEE7FEE7FEE7FEE704480549054A064BE4
:100E400070470000C503000889010008A0020020C7
:100E5000A0080020A0040020A00400202B49084383
:100E60002B490860704730B50F23C27801250178FF
:100E7000002A1FD0264A126802F4E062C2F5E0623E
:100E8000C2F30722C2F10404D3404278A24084781E
:100E90001C401443220101F1E02181F80024007874
:100EA00000F01F018D404009800000F1E020C0F8F3
:100EB000005130BD01F01F0085404809800000F15D
:100EC000E020C0F8805130BD124A11400143104863
:100ED000001F016070470E4A121D002903D01168DF
:100EE00001431160704711688143116070474FF0F2
:100EF000E021042804D0086920F00400086170474C
:100F0000086940F004000861704700000000FA051D
:100F10000CED00E080FFFF1F10B58D49884209D11C
:100F20000121084600F0DBFA0021BDE81040012055
:100F300000F0D5BA8749884209D10121022000F08A
:100F4000CEFA0021BDE81040022000F0C8BA824964
:100F5000884209D10121042000F0C1FA0021BDE836
:100F60001040042000F0BBBA7C49884209D101211D
:100F7000082000F0B4FA0021BDE81040082000F07D
:100F8000AEBA7749884209D10121102000F0A7FAB2
:100F90000021BDE81040102000F0A1BA714988423C
:100FA00009D10121202000F09AFA0021BDE810406B
:100FB000202000F094BA6C49884209D101214020D8
:100FC00000F08DFA0021BDE81040402000F087BA03
:100FD0006649884209D10121802000F080FA002171
:100FE000BDE81040802000F07ABA614988420AD1F9
:100FF00084150121204600F072FA2046BDE8104019
:10100000002100F06CBA5B4988420AD144150121E5
:10101000204600F064FA2046BDE81040002100F0B0
:101020005EBA554988420AD104150121204600F0D4
:1010300056FA2046BDE81040002100F050BA10BD1D
:101040002DE9F041002201274FF0030C07FA02F5C9
:101050000B682B40AB422CD1066853000CFA03F40A
:10106000A64306600E79D0F800809E4046EA080646
:1010700006600E79012E01D0022E12D18668A64399
:1010800086604E79D0F808809E4046EA0806866061
:101090004668AE43466045688E799640B6B23543A1
:1010A0004560C568A543C560CC799C40C3681C43B6
:1010B000C460521C102AC9D3BDE8F0814FF6FF71FD
:1010C00001600021017141718171C171704708B5E2
:1010D00041F480320092009AC261C1610099C161FD
:1010E000C169C069009008BD0246002012690A4229
:1010F00000D001207047006980B27047024600208E
:1011000052690A4200D001207047406980B270479E
:101110000183704741837047002A01D001837047E3
:10112000418370474161704742694A40426170475C
:1011300010B54B07DB0E9A40C90800EB8100016A2D
:101140000F249C40A1430162016A1143016210BD5A
:10115000000002400004024000080240000C02406F
:10116000001002400014024000180240001C02401F
:10117000002002400024024000280240FA48016892
:1011800041F001010160F84A002108321160026853
:10119000F64B1A400260031DF54A1A60F24BF54AFD
:1011A00084331A60F24A103A1B1D1A60026822F456
:1011B00080220260EC480C300160181D016070470D
:1011C000E9490022891C0A70087070470246002015
:1011D000510901290CD002290DD0E3497431096865
:1011E00002F01F02012393400B4200D00120704700
:1011F000DD490968F4E7DC4970310968F0E718B5A2
:10120000002000904FF4A0443120FFF7DFFF009949
:10121000491C00910099A14201D00028F4D031204E
:10122000FFF7D4FF08B1012018BD002018BDCE4A39
:10123000116821F0F80141EAC00010607047CE4902
:1012400008607047C849002270310A700A7001288E
:1012500004D0042801D105200870704701200870CF
:101260007047C6490860704710B5029C41EA821178
:101270004FF0FF3202EB530241EA0241014341EADF
:101280000460B949091D086010BDBB490866704774
:10129000800140EA0170B449843108607047B64962
:1012A00088667047800140EA0160AF4940EA0270F9
:1012B000883108607047B04908677047AE49C86414
:1012C0007047A94B08331A6822F0EC6208431043B8
:1012D00018607047A44B08331A6822F0784208431C
:1012E000104318607047A04A0832116821F00301CA
:1012F0000143116070479C480830006800F00C0002
:101300007047994A0832116821F0F00101431160D9
:101310007047954A0832116821F4E0510143116089
:101320007047914A0832116821F4604141EAC000D7
:101330001060704770B58C4B0833196801F00C01D0
:101340008F4C00291ED0661004291DD008291DD0FD
:101350000460196801F0F00109098A4A545C0168C7
:10136000E14041601C6804F4E054A40A145D21FAD1
:1013700004F484601B6803F460435B0BD25CD140CF
:10138000C16070BD0460E4E70660E2E7764A121DC2
:101390001168C1F38055116801F03F0135B1B6FB0A
:1013A000F1F11468C4F38814614305E0B4FBF1F172
:1013B0001468C4F3881461431268C2F30142521CDA
:1013C0005200B1FBF2F10160C3E7C0F30121032930
:1013D00008D1654B0833196821F4F8126A490140B5
:1013E00011431960604A70321168C0F30B00014369
:1013F0001160704761494439086070475F4940395E
:1014000008607047614908607047574A8C3211681C
:1014100021F01F01401E014311607047524A8C3277
:10142000116821F4F851401E41EA00201060704715
:101430004D4A8C32116821F440110143116070470C
:10144000494A8C32116821F4400101431160704710
:10145000454A8C32116821F44031014311607047D4
:101460004B4908607047404A3032002903D0116868
:1014700001431160704711688143116070473A4A17
:101480003432002903D0116801431160704711689C
:10149000814311607047344A3832002903D0116803
:1014A00001431160704711688143116070472E4AF3
:1014B0004032002903D01168014311607047116860
:1014C000814311607047284A4432002903D01168D3
:1014D0000143116070471168814311607047224ACF
:1014E0001032002903D01168014311607047116860
:1014F0008143116070471C4A1432002903D01168DF
:101500000143116070471168814311607047164AAA
:101510001832002903D01168014311607047116827
:10152000814311607047104A2032002903D01168AE
:1015300001431160704711688143116070470A4A86
:101540002432002903D011680143116070471168EB
:10155000814311607047044A503200291AD0116843
:10156000014311607047000000380240FFFFF6EAB7
:10157000103000240030002000004742800E474217
:101580000024F40048000020FFFCFF0F5C014742EC
:10159000E0114742116881431160E3E72E4A0029B8
:1015A00003D0116801431160DCE7116881431160C9
:1015B000D8E7294A121D002903D0116801431160A0
:1015C000D0E7116881431160CCE7234A0C3200292F
:1015D00003D0116801431160C4E7116881431160B1
:1015E000C0E71D4A1032002903D011680143116081
:1015F000B8E7116881431160B4E717491C3101282D
:1016000004D0086820F008000860ABE7086840F0E4
:1016100008000860A6E7104A473A002903D011786D
:10162000014311709EE71178814311709AE70A48CF
:101630002030016841F08071016093E7014600208D
:10164000054A483A12680A428CD001208AE70249CA
:101650004639087086E700005438024010B5F94951
:10166000884209D101210846FFF769FF0021BDE842
:1016700010400120FFF763BFB0F1804F0CD0F2495A
:10168000884213D101210220FFF74DFF0021BDE860
:1016900010400220FFF747BF01210846FFF743FF34
:1016A0000021BDE810400120FFF73DBFE749884217
:1016B00009D101210420FFF736FF0021BDE81040C9
:1016C0000420FFF730BFE249884209D101210820F8
:1016D000FFF729FF0021BDE810400820FFF723BFD6
:1016E000DC49884209D101211020FFF71CFF0021AD
:1016F000BDE810401020FFF716BFD749884209D136
:1017000001212020FFF70FFF0021BDE8104020201D
:10171000FFF709BFD149884209D101210220FFF713
:101720000EFF0021BDE810400220FFF708BFCC49A2
:1017300088420AD101210C042046FFF700FF204611
:10174000BDE810400021FFF7FABEC64988420AD121
:1017500001214C042046FFF7F2FE2046BDE8104070
:101760000021FFF7ECBEC04988420AD101218C0458
:101770002046FFF7E4FE2046BDE810400021FFF7B9
:10178000DEBEBA49884209D101214020FFF7CBFED5
:101790000021BDE810404020FFF7C5BEB449884293
:1017A00009D101218020FFF7BEFE0021BDE81040D5
:1017B0008020FFF7B8BEAF4988420AD184150121C5
:1017C0002046FFF7B0FE2046BDE810400021FFF79D
:1017D000AABE10BD30B502889A4CA04DA0420DD0D3
:1017E000A8420BD0B0F1804F08D0974B984205D05B
:1017F000964B984202D0964B984203D122F0700348
:101800004A881A43934B984206D0934B984203D090
:1018100022F440730A891A4302804A68C2620A8825
:101820000285A04201D0A84201D1897A0186012116
:10183000818230BD4FF0FF31416000210180018184
:10184000418081727047018582827047028822F050
:1018500070020A430280704741627047C16270475C
:10186000406A7047008D7047002904D0018841F01C
:10187000020101807047018821F002010180704758
:10188000002904D0018841F00401018070470188DB
:1018900021F0040101807047002904D0018841F043
:1018A000800101807047018821F08001018070472C
:1018B000028822F00802028002880A4302807047F0
:1018C000028822F44072028002880A430280704734
:1018D000002904D0018841F001010180704701888E
:1018E00021F001010180704730B5028C22F0010225
:1018F0000284058C8388028B22F0700222F003029E
:101900000C88144325F002028D8915434A882A4326
:101910004C4DA84202D0514DA8420FD122F00805EB
:10192000CA892A4322F004058A882A4323F4807353
:1019300023F400730D8A1D434B8A2B438380048359
:1019400089684163028430BD70B5028C22F01002B8
:101950000284028C8388048B24F4E04424F44076CF
:101960000D884FF6FF7404EA0525354322F0200266
:101970008E8904EA061616434A8804EA02123243A4
:10198000304EB04202D0354EB04217D122F0800224
:10199000CE8904EA0616164326F040068A8804EA31
:1019A0000212324323F4806323F400630E8A04EAB4
:1019B00086061E434B8A04EA8303334383800583F0
:1019C00089688163028470BD70B5028C22F48072D4
:1019D0000284028C8388848B24F0700424F0030436
:1019E0000D88254322F400728E894FF6FF7404EAB5
:1019F000062616434A8804EA02223243114EB042B8
:101A000002D0164EB04217D122F40066CA8904EA09
:101A10000222324322F480668A8804EA0222324398
:101A200023F4805323F400530E8A04EA06161E435F
:101A30004B8A04EA03133343838085838968C16337
:101A4000028470BD00000140000400400008004016
:101A5000000C004000100040001400400004014051
:101A6000004001400044014000480140001800408F
:101A7000001C00400020004070B5028C22F480520F
:101A80000284058C8288838B23F4E04323F4407620
:101A90000C884FF6FF7303EA0424344325F4005501
:101AA0008E8903EA06362E434D8803EA0535354311
:101AB000FE4EB04202D0FE4EB04205D122F4804626
:101AC0000A8A03EA8212324382808483896801642D
:101AD0000584B6E700210180418081808160818199
:101AE000C18101824182704730B500F118030124A1
:101AF0008C40058CA5430584002912D0082910D0FC
:101B0000091FC1F34E001844016848F6FF731940DD
:101B1000016001684FF6FF7303EA0222114301607E
:101B200030BD03EB510001684FF68F73194001601F
:101B300001681143016030BD4163704781637047A4
:101B4000C163704701647047028B22F070020A4340
:101B500002837047028B22F4E0424FF6FF7303EAE0
:101B60000121114301837047828B22F070020A43E6
:101B700082837047828B22F4E0424FF6FF7303EAC0
:101B80000121114381837047028B22F008020A432E
:101B900002837047028B22F400624FF6FF7303EA60
:101BA0000121114301837047828B22F008020A430E
:101BB00082837047828B22F400624FF6FF7303EA40
:101BC0000121114381837047028B22F004020A43F2
:101BD00002837047028B22F480624FF6FF7303EAA0
:101BE0000121114301837047828B22F004020A43D2
:101BF00082837047828B22F480624FF6FF7303EA80
:101C00000121114381837047028B22F080020A4335
:101C100002837047028BC2F30E024FF6FF7303EA92
:101C20000121114301837047828B22F080020A4315
:101C300082837047828BC2F30E024FF6FF7303EA72
:101C40000121114381837047028C22F002020A4372
:101C500002847047028C22F008020A430284704713
:101C6000028C22F020024FF6FF7303EA01111143A8
:101C700001847047028C22F080024FF6FF7303EA62
:101C80000111114301847047028C22F400724FF657
:101C9000FF7303EA0121114301847047028C22F48F
:101CA00000624FF6FF7303EA01211143018470477C
:101CB000028C22F400524FF6FF7303EA0131114304
:101CC0000184704710B501238B40048C9C4304842D
:101CD000038C8A401343038410BD10B504238B404A
:101CE000048C9C430484038C8A401343038410BDFA
:101CF000828B22F440628283828B4FF6FF7303EA69
:101D000001210A438283704770B5048C24F4805407
:101D10000484858B068C4FF6FF7404EA013125F4A8
:101D2000734504EA02222A4304EA0333134326F4E8
:101D300020420A4342F480518383018481E6828BEE
:101D400022F00C028283828B0A4382837047F0B5B3
:101D5000048C24F480740484868B058C4FF6FF7702
:101D600007EA012426F0F30607EA03111143314381
:101D700025F42062224342F4807281830284F0BD04
:101D8000028B22F440620283028B4FF6FF7303EA58
:101D900001210A430283704770B5048C24F01004BB
:101DA0000484058B068C4FF6FF7404EA011125F4B8
:101DB000734504EA03332B4304EA02221A4326F054
:101DC000A0030B4343F010010283018439E6028B28
:101DD00022F00C020283028B0A430283704770B523
:101DE000048C24F001040484058B048C25F0F30595
:101DF0004FF6FF7606EA031313432B4324F00A023F
:101E00000A4342F00101038301841AE670B50646D5
:101E10000C4625886188A2882389002D0BD0042DCB
:101E200011D0082D17D03046FFF76EFFE1883046FD
:101E3000BDE870405CE73046FFF7D1FFE1883046EF
:101E4000BDE87040C3E73046FFF7A6FFE1883046A3
:101E5000BDE8704094E73046FFF779FFE1883046EF
:101E6000BDE870406BE70021018041800122828043
:101E7000C180018170472DE9F04107460C460025DD
:101E800001266188002900D10225A288012A00D1FB
:101E9000022620882389B0B13846FFF77DFFE1880C
:101EA0003846FFF76DFF2389324603E0000001400A
:101EB0000004014029463846FFF791FFE188384683
:101EC000BDE8F04183E73846FFF789FFE1883846EF
:101ED000FFF77DFF2389324629463846FFF75CFF2E
:101EE000E1883846BDE8F0414AE7406B7047806BB7
:101EF0007047C06B7047006C704710B50A884B88FC
:101F0000CC881A438B8823431A430B891A434B8985
:101F100089891A430A43A0F8442010BD002101809A
:101F200041808180C1800181418181817047002988
:101F300005D030F8441F41F400410180704730F86B
:101F4000441FC1F30E0101807047002904D081882D
:101F500041F0040181807047818821F00401818073
:101F60007047002904D0818841F0010181807047C9
:101F7000818821F0010181807047002A03D0828985
:101F80000A438281704782898A43828170478182B5
:101F9000704702460020128A0A4200D00120704792
:101FA000C9430182704702460020138A0B40928980
:101FB0000A40002B02D0002A00D001207047C943FC
:101FC000018270471143A0F848107047002A03D0DF
:101FD00082890A438281704782898A43828170475D
:101FE000002904D0818841F00801818070478188F0
:101FF00021F0080181807047018921F007010181EA
:102000007047028922F070020A430281704700B5CE
:1020100003461846FFF7F5FF188940F007001881BE
:1020200000BD70B50D4604461146602D0CD001224E
:102030002046FFF7D4FE29462046FFF7E2FF20891D
:1020400040F007002081FCE401222046FFF7A4FEB7
:10205000F1E730B50489E4B24FF6FF7505EA0323D2
:1020600013430B432343038130BD10B50446204680
:10207000FFF7EFFF208920F0070040F0070020F075
:10208000700040F07000208110BD10B5044620465D
:10209000FFF7DFFF208940F48040208110BD828857
:1020A00022F07002828082880A438280704702890F
:1020B00022F00702028102890A43028170470289E5
:1020C00022F08002028102890A430281704770B5C2
:1020D0000589048B068C25F007050D434FF6FC415E
:1020E0000C4040F201110C4326F022064FF6FF711E
:1020F00001EA031111433143058104830184A0E403
:10210000002904D0818841F0800181807047818856
:1021100021F0800181807047A0F8501070470000C6
:1021200010B5F449884209D101211020FFF707FAC0
:102130000021BDE810401020FFF701BAEE498842A7
:102140000AD101214C042046FFF7EDF92046BDE8F5
:1021500010400021FFF7E7B9E84988420AD1012180
:102160008C042046FFF7DFF92046BDE8104000212F
:10217000FFF7D9B9E24988420AD10121CC042046AF
:10218000FFF7D1F92046BDE810400021FFF7CBB999
:10219000DC4988420AD101210C052046FFF7C3F92A
:1021A0002046BDE810400021FFF7BDB9D64988425E
:1021B00009D101212020FFF7C2F90021BDE810401C
:1021C0002020FFF7BCB9D14988420AD101218C07F0
:1021D0002046FFF7A8F92046BDE810400021FFF790
:1021E000A2B9CB4988420AD1440501212046FFF714
:1021F0009AF92046BDE810400021FFF794B910BDC0
:102200007FB504460D46208A20F44051E8880843F3
:102210002082A08941F20C618843A9882A89114350
:102220006A8902431143A181A08A20F44071A889E0
:102230000843A0826846FFF77DF8AE48844202D08A
:10224000B148844201D1039800E00298A1890904B1
:1022500008D500EBC00101EB001029684900B0FB74
:10226000F1F007E000EBC00101EB001029688900E4
:10227000B0FBF1F06422B0FBF2F109010B096FF041
:1022800018056B4300EB8300A3891D044FF0320354
:1022900007D503EBC000B0FBF2F000F007000843E5
:1022A00006E003EB0010B0FBF2F000F00F00084373
:1022B00020817FBD4FF41651016000218180C180D3
:1022C00001810C2242818181704710B5028A22F47B
:1022D00070630A884C8822438C88C9880C43224347
:1022E0001A43028210BD0021018041808180C1809B
:1022F0007047002904D0818941F4005181817047E1
:10230000818921F4005181817047028B02F47F4260
:102310000283028B0A4302837047002904D081891B
:1023200041F40041818170478189C1F30E018181AF
:102330007047002904D0818A41F40061818270478E
:10234000818A21F4006181827047C1F30801818094
:1023500070478088C0F308007047028A22F00F029D
:102360000282028A0A4302827047002904D08189CE
:1023700041F0020181817047818921F00201818150
:102380007047828922F40062828182890A438281B5
:102390007047028A22F020020282028A0A430282E5
:1023A0007047002904D0018A41F4804101827047BE
:1023B000018A21F4804101827047818941F0010145
:1023C00081817047002904D0818A41F0080181820F
:1023D0007047818A21F0080181827047028BD2B256
:1023E0000283028B42EA012101837047002904D055
:1023F000818A41F0200181827047818A21F0200189
:1024000081827047002904D0818A41F010018182C5
:102410007047818A21F0100181827047828A22F000
:1024200004028282828A0A4382827047002904D091
:10243000818A41F0020181827047818A21F0020184
:1024400081827047002A03D0828A0A4382827047C1
:10245000828A8A438282704710B540F66A13C1F3BC
:10246000421301F01F040121A140012B07D0022BD0
:1024700007D014303AB102680A43026010BD0C3034
:10248000F8E71030F6E702688A43026010BD0246A2
:10249000002012880A4200D0012070478A05C943F3
:1024A0000180704770B5002440F66A12C1F34213F0
:1024B00001F01F05012606FA05F2012B0CD0022BB4
:1024C0000DD0838A1340090A8E40008830400BB13A
:1024D00000B10124204670BD83891340F3E7038ACD
:1024E0001340F0E740F66A120A0A01219140C943FD
:1024F0000180704700100140004400400048004047
:10250000004C0040005000400014014000780040A2
:10251000007C004010B501210C022046FFF70FF8A7
:102520002046BDE810400021FFF709B830B54268E9
:10253000DA4B1A400C790B6842EA042213434360D9
:102540008368D74A1340D1E9034222434D798C680E
:1025500044EA450422431A438260C26A22F47002AC
:10256000097D491EC9B242EA0151C16230BD002154
:102570000160017141718160C160016101210175DA
:10258000704710B5C74C2268C7490A40D0E900130C
:102590001943D0E90230034319431143216010BDB0
:1025A0000021016041608160C1607047002904D052
:1025B000816841F0010181607047816821F001016B
:1025C000816070474268B94B1A400A4342607047C5
:1025D000416282627047426822F01F020A434260F1
:1025E0007047B349002806D0D1F8040340F4000036
:1025F000C1F804037047D1F8040320F40000C1F8C7
:1026000004037047AA49002806D0D1F8040340F417
:102610008000C1F804037047D1F8040320F480005F
:10262000C1F80403704770B5072609290AD9C5689F
:10263000A1F10A0404EB4404A640B543A3401D43A2
:10264000C56007E0056901EB4104A640B543A3401E
:102650001D4305611F23072A09D2446B521E02EB5A
:10266000820293409C4391400C43446370BD0D2A09
:1026700009D2046BD21F02EB820293409C4391402B
:102680000C43046370BDC46A0D3A02EB82029340AE
:102690009C4391400C43C46270BD816841F080410D
:1026A00081607047014600208968490000D50120FB
:1026B0007047002904D0816841F4806181607047CF
:1026C000816821F4806181607047002904D08168AD
:1026D00041F0020181607047816821F00201816050
:1026E0007047426822F46042491E42EA413141602B
:1026F0007047002904D0416841F40061416070478F
:10270000416821F4006141607047C06C80B270473D
:102710006448001D00687047002904D0816841F4B6
:10272000807181607047816821F480718160704799
:10273000002904D0816841F400718160704781688C
:1027400021F40071816070475949002806D0D1F802
:10275000040340F40050C1F804037047D1F80403A7
:1027600020F40050C1F80403704770B5072609290A
:102770000AD9C568A1F10A0404EB4404A640B54394
:10278000A3401D43C56007E0056901EB4104A64075
:10279000B543A3401D430561836BC3F30154121B72
:1027A000921C02EB82021F249440A34391400B43EE
:1027B000836370BD826B22F44012491E42EA0151CC
:1027C0008163704708B50090009808440090009815
:1027D000026008BD826822F470220A43826070475A
:1027E000826822F440120A4382607047816841F493
:1027F000800181607047014600208968490200D548
:1028000001207047002904D0416841F48061416093
:102810007047416821F4806141607047002904D00D
:10282000416841F4805141607047416821F4805112
:102830004160704708B50090009808442830009027
:102840000098006880B208BD01238B40002A03D0A5
:10285000416819434160704741689943416070473E
:102860000246002012680A4200D001207047C94386
:102870000160704730B5024600200B0A54680125FC
:102880008D402C401168194202D0002C00D001204C
:1028900030BD090AC943016070470000FFFEFFFC1C
:1028A000FDF7FFC004230140E030FCFFFFFD3FFFC8
:1028B000002001400EB5BDEEC00A8DED000A8DED81
:1028C000010A9FEDBF1A9FEDBF0A00EE810ABDEE1F
:1028D000C00A8DED020A9DE80E000EC00EBD091A59
:1028E000B94A1069D2ED000A081A00EE100A92EDFA
:1028F000011AB8EEC00A60EE200A00EE101AB8EE17
:10290000C00A41EE000A92ED030AB8EEC00A30EEAA
:10291000800ABDEEC00A10EE100AD0601161704747
:10292000091AA94AD069D2ED000A081A00EE100A65
:1029300092ED011AB8EEC00A60EE200A00EE101AFD
:10294000B8EEC00A41EE000A92ED060AB8EEC00ADF
:1029500030EE800ABDEEC00A10EE100A9061D1611F
:1029600070470FB43EB50346084615464FF4FA5477
:102970000999FFF7B4FF009028460A99FFF7D0FFA6
:1029800001900B98029000996042814200DA009019
:1029900000992246914200DD00940199814200DABB
:1029A00001900198904200DD0194029940F22620A6
:1029B000814200DA0290029940F2B630814200DD95
:1029C00002909DE8070007C33EBC5DF814FB07B505
:1029D0007E49009B0A1F9000002B04DA08600099D2
:1029E0000144116003E01060009A821A0A6077497E
:1029F000019B08310A1F002B04DA08600199084482
:102A0000106003E01060019A801A08607049029813
:102A100008640EBD0021022805D0032809D004282F
:102A20000CD0002070474FF08042506A00B25162D3
:102A30007047684A106800B211607047634A143AE0
:102A4000106800B21160704710B588B001210846C7
:102A5000FEF72DFD01210846FEF705FD03208DF848
:102A6000050002218DF8041001218DF80610009058
:102A7000594C69462046FEF7E3FA01220021204620
:102A8000FEF756FB012211462046FEF751FB05A832
:102A9000FEF7D0FE0020ADF814004FF6FF7106914E
:102AA000ADF81C00ADF81600640305A92046FEF73A
:102AB00091FE0223002203212046FFF708FB02A813
:102AC000FFF7D1F90821ADF8101002A92046FFF751
:102AD0009DF901212046FFF763FA012211462046A5
:102AE000FFF74BFA00212046FEF7B6FE01212046F3
:102AF000FEF7EEFE08B010BD10B588B00121084603
:102B0000FEF7B1FC01210220FEF7D1FC6846FEF77A
:102B1000D5FAC020009003208DF8050002208DF822
:102B2000040001208DF806002B4C69462046FEF774
:102B300087FA022206212046FEF7FAFA022207212E
:102B40002046FEF7F5FA234C243C2046FEF786FD8E
:102B500005A92046FEF73EFE05A8FEF76BFE002104
:102B6000ADF814104FF6FF720692ADF81C10ADF8D8
:102B7000161005A92046FEF72DFE00231A46032154
:102B80002046FFF7A4FA02A8FFF76DF90821ADF877
:102B9000101002A92046FFF739F901212046FFF75E
:102BA000FFF9012211462046FFF7E7F900212046F0
:102BB000FEF752FE01212046FEF78AFE9AE700004A
:102BC00033B39B4300803B4458000020380800404A
:102BD0000000014024040040000002407047000053
:102BE0000FB4044910B503AA029800F0D3F810BC42
:102BF0005DF814FB440000202DE9F0410E46044628
:102C0000002020622046E168884730B3252805D09F
:102C1000D4E901219047206A401CF2E7E168204690
:102C200000278847050018D0A5F14100192802D8CF
:102C300020354FF400673246294620462760FDF7CD
:102C4000DDFA40B1012804D0F61D26F0070608364B
:102C5000D8E7361DD6E72846DAE7206ABDE8F081D6
:102C60002DE9F0410646002410687529314616A565
:102C700010D0AFF30080002802DA404213A507E02D
:102C800031688A0701D512A502E0490704D511A5CC
:102C9000012401E0AFF3008000210A2206F124079D
:102CA00009E0B0FBF2FCB0FBF2F302FB1C00303099
:102CB00078541846491C0028F3D123462A4630464A
:102CC000BDE8F04100F00CB8000000002D0000004D
:102CD0002B000000200000007047704770477047CD
:102CE0002DE9F0470D4699469246044600F1240826
:102CF0000168880604D5E06921F01001216000E038
:102D00000120A84201DD471B00E00027A1697A19D4
:102D100002EB0900081AA0612078C00602D4204600
:102D2000AFF30080002608E0D4E901211AF806007C
:102D30009047206A401C761C20624E45F4DB2078C8
:102D4000C0060AD52046AFF3008006E0D4E9012191
:102D500030209047206A401C2062381EA7F10107EE
:102D6000F4DC07E0D4E9012118F805009047206A57
:102D7000401C2062281EA5F10105F3DC2046AFF3BC
:102D800000802078000602D50220BDE8F0870120EF
:102D9000FBE70000074B70B50D467B4400F011F8CF
:102DA0000446284600F020F810B14FF0FF3070BD07
:102DB000204670BDE1DEFFFF01694A1C0261087810
:102DC000704700B58FB0CDE901310021059105496B
:102DD0007944CDE9031011466846FFF70DFF0FB0A7
:102DE00000BD0000E5FFFFFF007B00F080007047A2
:102DF000754600F02BF8AE4605006946534620F0B4
:102E00000700854618B020B5FEF716F8BDE820404B
:102E10004FF000064FF000074FF000084FF0000B96
:102E200021F00701AC46ACE8C009ACE8C009ACE849
:102E3000C009ACE8C0098D46704710B50446AFF331
:102E400000802046BDE81040FDF7ECB9004870470F
:102E50004002002021F00042A2F16052B2F5801F32
:102E600001F0004328BFD2F17F6C0BD95FEA001C50
:102E700043EAC20242EB507018BF704728BF20F0EF
:102E800001007047B2F5801FBCBF184670474FEA7B
:102E9000410C1CF5001F02D2084600F0D9BA70B5EB
:102EA00000F00CFA00000089FFF7F6BF4FF0004079
:102EB000A0F58000704700002DE9C04130B4DFF874
:102EC000A0C23CEA111418BF3CEA131400F0EC80D5
:102ED00081EA03051CEA111444EAD57418BF1CEA00
:102EE000131500F0C780A4EB05044FF0004545EA38
:102EF000C12145EAC32341EA505143EA525304F148
:102F00007F74994204F500344FEAC0204FEAC22290
:102F100008BF904200F09C804FEA13650FF2401604
:102F2000765D4FEA134506FB05F7C7F1807706FB90
:102F300007F74FEAD737A7FB03687642C8F5803812
:102F4000A7FB06CE38BFA8F1010807FB08E64FF043
:102F5000000EA6FB028CE6FB03CEDCF1000CCEF1EA
:102F6000004E38BFAEF1010EA6FB0C584FF0000723
:102F70004FF00005E6FB0E87A1FB08C6A0FB07CEBD
:102F800016EB0E0645F10005E1FB076515F1E04E75
:102F90007EBFA4F580345FEA46066D4116F18007D6
:102FA00045F100054FEA17274FEA066647EA05672D
:102FB000A6F1DE46B6F1805F4FEA15251FD93846E7
:102FC00024F0010C05EBC471BCF1FE6F01EB0C1198
:102FD00002D8F0BCBDE8008124425CBF01F5801E30
:102FE0009EEAC47F02D4F0BCBDE80081244238D4FC
:102FF000F0BCA1F1C041BDE8004100F0ADB94FEA1D
:10300000D22242EA43524FEAD323A7FB02864FEA79
:10301000D02040EA415007FB03661EEA0E0F4FEA3C
:10302000D12105FB026658BFA6EB0056B6EB005651
:103030004FEA520E4EEAC37E18EB0E0E56EB530EBD
:10304000BDD518EB02085E417F1C55F10005B6E7BF
:103050004FF480154FF000074FF000064FF00008C6
:10306000ADE7F0BC4FF0000001F1C04101F00041BC
:10307000BDE8008111EA0C1F0CEA131500D00CE02A
:1030800013EA0C1F00F025804FF00000F0BC81EA2D
:10309000030101F00041BDE80081F0BCBDE8004142
:1030A00081EA030100F058B9F0BCBDE8004170B5F9
:1030B00000F004F9097EFC3E00F007B881EA030144
:1030C0004FF0000001F00041704781EA030100F079
:1030D00043B9F0BCBDE800414FF000002149704702
:1030E000FFFDFBF9F7F5F4F2F0EEEDEBE9E8E6E4CD
:1030F000E3E1E0DEDDDBDAD8D7D5D4D3D1D0CFCD54
:10310000CCCBCAC8C7C6C5C4C2C1C0BFBEBDBCBB8C
:10311000BAB9B8B7B6B5B4B3B2B1B0AFAEADACAB87
:10312000AAA9A8A8A7A6A5A4A3A3A2A1A09F9F9E61
:103130009D9C9C9B9A999998979796959594939313
:10314000929191908F8F8E8E8D8C8C8B8B8A8989AA
:10315000888887878685858484838382828181802D
:103160000000FF070000F87FDFF848C170B51CEAD7
:10317000111E1EBF1CEA13159EEA0C0F95EA0C0FD8
:1031800000F06F8081EA030423EA4C134EEAD47EF8
:1031900021EA4C1141F4801143F48013AE44A1FBA9
:1031A000024CA0FB0365AEF17F7E361955EB0C0592
:1031B000A1FB034C4CF10003A0FB021C16EB0C0618
:1031C000654153F10003094218BF46F0010613F4AC
:1031D000007F0BD14FEA03314FEA0530340341EA57
:1031E000155140EA16506FF003020AE04FEAC3217E
:1031F0004FEAC520F40241EA555140EA56506FF0BB
:10320000020202EB2E4201EB025585EACE710AD092
:103210005FEA440C18BF24F0004450F1000041F173
:10322000000120EAD47040F2FE7C624500D270BDFD
:10323000A84214BF4FF080444FF04044002E08BF16
:103240000024BEF1806FA8BFA1F1C041BDE870406D
:1032500080F282804FF0000001F1C04101F0004196
:1032600070479EEA0C0F0CEA131518BF95EA0C0F75
:1032700006D04FF0000081EA030E0EF0004170BD51
:1032800000F01CF88900013E00F007B800F009B812
:103290004FEA430C5FEA5C5C08D081EA030100F06E
:1032A0005BB84FEA410C5FEA5C5CF6D14FF000007E
:1032B000014970470000FF070000F87F0EF1020E81
:1032C0002EF0030E5EF8046B364205D4012A43EB60
:1032D000030515F5001F12D8012841EB010C1CF560
:1032E000001F0CD80ED14FEAD17C15F5001F0CEB56
:1032F0004C0C0CF1020C08BF4CEBD37C04E04FF0FB
:10330000080C01E04FEAD37C0CEB4C0526FA05F6DD
:1033100006F00706B6F1040C06D20EEB860CBDE8EB
:1033200070404CF0010C6047DFE80CF0090B020222
:103330004FF000414FF00000A1F5002170BD19468B
:103340001046012851EB010418BFD4F5001484BFC6
:10335000002001F0004170BD0808A0F500114FEAFF
:103360003101704743004FEAD30C4FEA3C0C434015
:103370001FBF40070CF1605113F0FE4F70471CF067
:10338000006F03D100200CF0004170470CF00043A7
:1033900043EA507010B540EACC0000F00EF800BFD0
:1033A000000000924FEA0001FFF7D6BF4FF0004146
:1033B0004FF00000A1F5002170470EF1020E2EF033
:1033C000030E5EF8044B244204D44FEA4102B2F1EA
:1033D0007F4F11D84FEA4003B3F17F4F0CD80ED185
:1033E0004FEAD07CB2F17F4F0CEB4C0C0CF1020C8D
:1033F00008BF4CEBD17C04E04FF0080C01E04FEA31
:10340000D17C0CEB4C0324FA03F404F00704B4F170
:10341000040C06D20EEB840CBDE810404CF0010CFD
:103420006047DFE80CF0070802024FF00040A0F50B
:10343000800010BD0846420018BFD2F1807288BFDC
:1034400000F0004010BD4FF04070E1EE100A7047F0
:10345000FF2141EAD050C005704700007C340008CD
:103460000000002078000000C4010008F4340008C7
:103470007800002028080000E0010008000000009B
:103480000000000000000000007A030A00000000B5
:103490000000000001020304060708090000000004
:1034A000000000000000000000000000000000001C
:1034B000000000000000000000000000000000000C
:1034C00000000000000000000102030401020304E8
:1034D00006070809000040410000404100000000CC
:1034E00000000000000000000000000000000000DC
:0434F00000000000D8
:040000050800018965
:00000001FF
